{
	"_format": "hh-sol-artifact-1",
	"contractName": "MyEpicNFT",
	"sourceName": "contracts/MyEpicNFT.sol",
	"abi": [
		{
			"inputs": [],
			"stateMutability": "nonpayable",
			"type": "constructor"
		},
		{
			"anonymous": false,
			"inputs": [
				{
					"indexed": true,
					"internalType": "address",
					"name": "owner",
					"type": "address"
				},
				{
					"indexed": true,
					"internalType": "address",
					"name": "approved",
					"type": "address"
				},
				{
					"indexed": true,
					"internalType": "uint256",
					"name": "tokenId",
					"type": "uint256"
				}
			],
			"name": "Approval",
			"type": "event"
		},
		{
			"anonymous": false,
			"inputs": [
				{
					"indexed": true,
					"internalType": "address",
					"name": "owner",
					"type": "address"
				},
				{
					"indexed": true,
					"internalType": "address",
					"name": "operator",
					"type": "address"
				},
				{
					"indexed": false,
					"internalType": "bool",
					"name": "approved",
					"type": "bool"
				}
			],
			"name": "ApprovalForAll",
			"type": "event"
		},
		{
			"anonymous": false,
			"inputs": [
				{
					"indexed": false,
					"internalType": "address",
					"name": "sender",
					"type": "address"
				},
				{
					"indexed": false,
					"internalType": "uint256",
					"name": "tokenId",
					"type": "uint256"
				}
			],
			"name": "NewEpicNFTMinted",
			"type": "event"
		},
		{
			"anonymous": false,
			"inputs": [
				{
					"indexed": true,
					"internalType": "address",
					"name": "from",
					"type": "address"
				},
				{
					"indexed": true,
					"internalType": "address",
					"name": "to",
					"type": "address"
				},
				{
					"indexed": true,
					"internalType": "uint256",
					"name": "tokenId",
					"type": "uint256"
				}
			],
			"name": "Transfer",
			"type": "event"
		},
		{
			"inputs": [
				{
					"internalType": "address",
					"name": "to",
					"type": "address"
				},
				{
					"internalType": "uint256",
					"name": "tokenId",
					"type": "uint256"
				}
			],
			"name": "approve",
			"outputs": [],
			"stateMutability": "nonpayable",
			"type": "function"
		},
		{
			"inputs": [
				{
					"internalType": "address",
					"name": "owner",
					"type": "address"
				}
			],
			"name": "balanceOf",
			"outputs": [
				{
					"internalType": "uint256",
					"name": "",
					"type": "uint256"
				}
			],
			"stateMutability": "view",
			"type": "function"
		},
		{
			"inputs": [
				{
					"internalType": "uint256",
					"name": "tokenId",
					"type": "uint256"
				}
			],
			"name": "getApproved",
			"outputs": [
				{
					"internalType": "address",
					"name": "",
					"type": "address"
				}
			],
			"stateMutability": "view",
			"type": "function"
		},
		{
			"inputs": [],
			"name": "getTotalNFTsMintedCount",
			"outputs": [
				{
					"internalType": "uint256",
					"name": "",
					"type": "uint256"
				}
			],
			"stateMutability": "view",
			"type": "function"
		},
		{
			"inputs": [
				{
					"internalType": "address",
					"name": "owner",
					"type": "address"
				},
				{
					"internalType": "address",
					"name": "operator",
					"type": "address"
				}
			],
			"name": "isApprovedForAll",
			"outputs": [
				{
					"internalType": "bool",
					"name": "",
					"type": "bool"
				}
			],
			"stateMutability": "view",
			"type": "function"
		},
		{
			"inputs": [],
			"name": "makeAnEpicNFT",
			"outputs": [],
			"stateMutability": "nonpayable",
			"type": "function"
		},
		{
			"inputs": [],
			"name": "name",
			"outputs": [
				{
					"internalType": "string",
					"name": "",
					"type": "string"
				}
			],
			"stateMutability": "view",
			"type": "function"
		},
		{
			"inputs": [
				{
					"internalType": "uint256",
					"name": "tokenId",
					"type": "uint256"
				}
			],
			"name": "ownerOf",
			"outputs": [
				{
					"internalType": "address",
					"name": "",
					"type": "address"
				}
			],
			"stateMutability": "view",
			"type": "function"
		},
		{
			"inputs": [
				{
					"internalType": "uint256",
					"name": "tokenId",
					"type": "uint256"
				}
			],
			"name": "pickRandomColor",
			"outputs": [
				{
					"internalType": "string",
					"name": "",
					"type": "string"
				}
			],
			"stateMutability": "view",
			"type": "function"
		},
		{
			"inputs": [
				{
					"internalType": "uint256",
					"name": "tokenId",
					"type": "uint256"
				}
			],
			"name": "pickRandomFirstWord",
			"outputs": [
				{
					"internalType": "string",
					"name": "",
					"type": "string"
				}
			],
			"stateMutability": "view",
			"type": "function"
		},
		{
			"inputs": [
				{
					"internalType": "uint256",
					"name": "tokenId",
					"type": "uint256"
				}
			],
			"name": "pickRandomSecondWord",
			"outputs": [
				{
					"internalType": "string",
					"name": "",
					"type": "string"
				}
			],
			"stateMutability": "view",
			"type": "function"
		},
		{
			"inputs": [
				{
					"internalType": "uint256",
					"name": "tokenId",
					"type": "uint256"
				}
			],
			"name": "pickRandomThirdWord",
			"outputs": [
				{
					"internalType": "string",
					"name": "",
					"type": "string"
				}
			],
			"stateMutability": "view",
			"type": "function"
		},
		{
			"inputs": [
				{
					"internalType": "address",
					"name": "from",
					"type": "address"
				},
				{
					"internalType": "address",
					"name": "to",
					"type": "address"
				},
				{
					"internalType": "uint256",
					"name": "tokenId",
					"type": "uint256"
				}
			],
			"name": "safeTransferFrom",
			"outputs": [],
			"stateMutability": "nonpayable",
			"type": "function"
		},
		{
			"inputs": [
				{
					"internalType": "address",
					"name": "from",
					"type": "address"
				},
				{
					"internalType": "address",
					"name": "to",
					"type": "address"
				},
				{
					"internalType": "uint256",
					"name": "tokenId",
					"type": "uint256"
				},
				{
					"internalType": "bytes",
					"name": "_data",
					"type": "bytes"
				}
			],
			"name": "safeTransferFrom",
			"outputs": [],
			"stateMutability": "nonpayable",
			"type": "function"
		},
		{
			"inputs": [
				{
					"internalType": "address",
					"name": "operator",
					"type": "address"
				},
				{
					"internalType": "bool",
					"name": "approved",
					"type": "bool"
				}
			],
			"name": "setApprovalForAll",
			"outputs": [],
			"stateMutability": "nonpayable",
			"type": "function"
		},
		{
			"inputs": [
				{
					"internalType": "bytes4",
					"name": "interfaceId",
					"type": "bytes4"
				}
			],
			"name": "supportsInterface",
			"outputs": [
				{
					"internalType": "bool",
					"name": "",
					"type": "bool"
				}
			],
			"stateMutability": "view",
			"type": "function"
		},
		{
			"inputs": [],
			"name": "symbol",
			"outputs": [
				{
					"internalType": "string",
					"name": "",
					"type": "string"
				}
			],
			"stateMutability": "view",
			"type": "function"
		},
		{
			"inputs": [
				{
					"internalType": "uint256",
					"name": "tokenId",
					"type": "uint256"
				}
			],
			"name": "tokenURI",
			"outputs": [
				{
					"internalType": "string",
					"name": "",
					"type": "string"
				}
			],
			"stateMutability": "view",
			"type": "function"
		},
		{
			"inputs": [
				{
					"internalType": "address",
					"name": "from",
					"type": "address"
				},
				{
					"internalType": "address",
					"name": "to",
					"type": "address"
				},
				{
					"internalType": "uint256",
					"name": "tokenId",
					"type": "uint256"
				}
			],
			"name": "transferFrom",
			"outputs": [],
			"stateMutability": "nonpayable",
			"type": "function"
		}
	],
	"bytecode": "0x6080604052603260085560405180610100016040528060d3815260200162004ecd60d39139600990805190602001906200003b92919062000ea8565b5060405180608001604052806056815260200162004fa060569139600a90805190602001906200006d92919062000ea8565b50604051806101e001604052806040518060400160405280600781526020017f44796e616d69630000000000000000000000000000000000000000000000000081525081526020016040518060400160405280600981526020017f4578706c6f73697665000000000000000000000000000000000000000000000081525081526020016040518060400160405280600b81526020017f5375706572666c756f757300000000000000000000000000000000000000000081525081526020016040518060400160405280600781526020017f47656e657269630000000000000000000000000000000000000000000000000081525081526020016040518060400160405280600781526020017f447562696f75730000000000000000000000000000000000000000000000000081525081526020016040518060400160405280600981526020017f456e65726765746963000000000000000000000000000000000000000000000081525081526020016040518060400160405280600481526020017f4c617a790000000000000000000000000000000000000000000000000000000081525081526020016040518060400160405280600d81526020017f4c61636b61646169736963616c0000000000000000000000000000000000000081525081526020016040518060400160405280600a81526020017f466f726d696461626c650000000000000000000000000000000000000000000081525081526020016040518060400160405280600881526020017f41646f7261626c6500000000000000000000000000000000000000000000000081525081526020016040518060400160405280600881526020017f4472616d6174696300000000000000000000000000000000000000000000000081525081526020016040518060400160405280600981526020017f457863657373697665000000000000000000000000000000000000000000000081525081526020016040518060400160405280600781526020017f456e72616765640000000000000000000000000000000000000000000000000081525081526020016040518060400160405280600981526020017f53697379706865616e000000000000000000000000000000000000000000000081525081526020016040518060400160405280600981526020017f4d6f6e7374726f75730000000000000000000000000000000000000000000000815250815250600b90600f620003ff92919062000f39565b506040518061020001604052806040518060400160405280600681526020017f486f74446f67000000000000000000000000000000000000000000000000000081525081526020016040518060400160405280600581526020017f50697a7a6100000000000000000000000000000000000000000000000000000081525081526020016040518060400160405280600981526020017f4d696c6b7368616b65000000000000000000000000000000000000000000000081525081526020016040518060400160405280600681526020017f436f66666565000000000000000000000000000000000000000000000000000081525081526020016040518060400160405280600b81526020017f436865657365537465616b00000000000000000000000000000000000000000081525081526020016040518060400160405280600681526020017f436f6f6b6965000000000000000000000000000000000000000000000000000081525081526020016040518060400160405280600781526020017f456767726f6c6c0000000000000000000000000000000000000000000000000081525081526020016040518060400160405280600581526020017f537465616b00000000000000000000000000000000000000000000000000000081525081526020016040518060400160405280600981526020017f4f6e696f6e52696e67000000000000000000000000000000000000000000000081525081526020016040518060400160405280600981526020017f48616d627572676572000000000000000000000000000000000000000000000081525081526020016040518060400160405280600c81526020017f5065616e7574427574746572000000000000000000000000000000000000000081525081526020016040518060400160405280600981526020017f43686f636f6c617465000000000000000000000000000000000000000000000081525081526020016040518060400160405280600781526020017f4d6561745069650000000000000000000000000000000000000000000000000081525081526020016040518060400160405280600981526020017f4361737365726f6c65000000000000000000000000000000000000000000000081525081526020016040518060400160405280600781526020017f4c617361676e610000000000000000000000000000000000000000000000000081525081526020016040518060400160405280600781526020017f4275727269746f00000000000000000000000000000000000000000000000000815250815250600c906010620007cc92919062000fa0565b50604051806101e001604052806040518060400160405280600981526020017f426174746572696573000000000000000000000000000000000000000000000081525081526020016040518060400160405280600581526020017f48616e647300000000000000000000000000000000000000000000000000000081525081526020016040518060400160405280600481526020017f4c6567730000000000000000000000000000000000000000000000000000000081525081526020016040518060400160405280600881526020017f45796542616c6c7300000000000000000000000000000000000000000000000081525081526020016040518060400160405280600781526020017f42756c6c6574730000000000000000000000000000000000000000000000000081525081526020016040518060400160405280600481526020017f446f67730000000000000000000000000000000000000000000000000000000081525081526020016040518060400160405280600481526020017f436174730000000000000000000000000000000000000000000000000000000081525081526020016040518060400160405280600981526020017f4b6579626f61726473000000000000000000000000000000000000000000000081525081526020016040518060400160405280600a81526020017f4865616470686f6e65730000000000000000000000000000000000000000000081525081526020016040518060400160405280600581526020017f50616e747300000000000000000000000000000000000000000000000000000081525081526020016040518060400160405280600681526020017f536869727473000000000000000000000000000000000000000000000000000081525081526020016040518060400160405280600c81526020017f42656c6c79427574746f6e73000000000000000000000000000000000000000081525081526020016040518060400160405280600681526020017f547261696e73000000000000000000000000000000000000000000000000000081525081526020016040518060400160405280600681526020017f50686f6e6573000000000000000000000000000000000000000000000000000081525081526020016040518060400160405280600a81526020017f4861726444726976657300000000000000000000000000000000000000000000815250815250600d90600f62000b5e92919062000f39565b506040518060c001604052806040518060400160405280600381526020017f726564000000000000000000000000000000000000000000000000000000000081525081526020016040518060400160405280600781526020017f233630633635370000000000000000000000000000000000000000000000000081525081526020016040518060400160405280600581526020017f626c61636b00000000000000000000000000000000000000000000000000000081525081526020016040518060400160405280600481526020017f70696e6b0000000000000000000000000000000000000000000000000000000081525081526020016040518060400160405280600481526020017f626c75650000000000000000000000000000000000000000000000000000000081525081526020016040518060400160405280600781526020017f2333356165653200000000000000000000000000000000000000000000000000815250815250600e90600662000cdc92919062001007565b5034801562000cea57600080fd5b506040518060400160405280600981526020017f5371756172654e465400000000000000000000000000000000000000000000008152506040518060400160405280600681526020017f5351554152450000000000000000000000000000000000000000000000000000815250816000908051906020019062000d6f92919062000ea8565b50806001908051906020019062000d8892919062000ea8565b50505062000dd66040518060400160405280601c81526020017f54686973206973206d79204e465420636f6e74726163742e204f4d470000000081525062000ddc60201b620013121760201c565b62001228565b62000e7c8160405160240162000df391906200113c565b6040516020818303038152906040527f41304fac000000000000000000000000000000000000000000000000000000007bffffffffffffffffffffffffffffffffffffffffffffffffffffffff19166020820180517bffffffffffffffffffffffffffffffffffffffffffffffffffffffff838183161783525050505062000e7f60201b60201c565b50565b60008151905060006a636f6e736f6c652e6c6f679050602083016000808483855afa5050505050565b82805462000eb690620011b2565b90600052602060002090601f01602090048101928262000eda576000855562000f26565b82601f1062000ef557805160ff191683800117855562000f26565b8280016001018555821562000f26579182015b8281111562000f2557825182559160200191906001019062000f08565b5b50905062000f3591906200106e565b5090565b82805482825590600052602060002090810192821562000f8d579160200282015b8281111562000f8c57825182908051906020019062000f7b92919062000ea8565b509160200191906001019062000f5a565b5b50905062000f9c91906200108d565b5090565b82805482825590600052602060002090810192821562000ff4579160200282015b8281111562000ff357825182908051906020019062000fe292919062000ea8565b509160200191906001019062000fc1565b5b5090506200100391906200108d565b5090565b8280548282559060005260206000209081019282156200105b579160200282015b828111156200105a5782518290805190602001906200104992919062000ea8565b509160200191906001019062001028565b5b5090506200106a91906200108d565b5090565b5b80821115620010895760008160009055506001016200106f565b5090565b5b80821115620010b15760008181620010a79190620010b5565b506001016200108e565b5090565b508054620010c390620011b2565b6000825580601f10620010d75750620010f8565b601f016020900490600052602060002090810190620010f791906200106e565b5b50565b6000620011088262001160565b6200111481856200116b565b9350620011268185602086016200117c565b620011318162001217565b840191505092915050565b60006020820190508181036000830152620011588184620010fb565b905092915050565b600081519050919050565b600082825260208201905092915050565b60005b838110156200119c5780820151818401526020810190506200117f565b83811115620011ac576000848401525b50505050565b60006002820490506001821680620011cb57607f821691505b60208210811415620011e257620011e1620011e8565b5b50919050565b7f4e487b7100000000000000000000000000000000000000000000000000000000600052602260045260246000fd5b6000601f19601f8301169050919050565b613c9580620012386000396000f3fe608060405234801561001057600080fd5b50600436106101215760003560e01c806370a08231116100ad578063b88d4fde11610071578063b88d4fde14610340578063c575757a1461035c578063c87b56dd1461038c578063de9d132f146103bc578063e985e9c5146103c657610121565b806370a082311461028857806395d89b41146102b8578063a22cb465146102d6578063aaae0a08146102f2578063b187301f1461031057610121565b806323b872dd116100f457806323b872dd146101c05780632de38d68146101dc57806342842e0e1461020c578063514dc8c6146102285780636352211e1461025857610121565b806301ffc9a71461012657806306fdde0314610156578063081812fc14610174578063095ea7b3146101a4575b600080fd5b610140600480360381019061013b9190612712565b6103f6565b60405161014d919061349e565b60405180910390f35b61015e6104d8565b60405161016b91906134b9565b60405180910390f35b61018e60048036038101906101899190612764565b61056a565b60405161019b919061340e565b60405180910390f35b6101be60048036038101906101b991906126d6565b6105ef565b005b6101da60048036038101906101d591906125d0565b610707565b005b6101f660048036038101906101f19190612764565b610767565b60405161020391906134b9565b60405180910390f35b610226600480360381019061022191906125d0565b610885565b005b610242600480360381019061023d9190612764565b6108a5565b60405161024f91906134b9565b60405180910390f35b610272600480360381019061026d9190612764565b6109c3565b60405161027f919061340e565b60405180910390f35b6102a2600480360381019061029d919061256b565b610a75565b6040516102af9190613739565b60405180910390f35b6102c0610b2d565b6040516102cd91906134b9565b60405180910390f35b6102f060048036038101906102eb919061269a565b610bbf565b005b6102fa610bd5565b6040516103079190613739565b60405180910390f35b61032a60048036038101906103259190612764565b610be6565b60405161033791906134b9565b60405180910390f35b61035a6004803603810190610355919061261f565b610d04565b005b61037660048036038101906103719190612764565b610d66565b60405161038391906134b9565b60405180910390f35b6103a660048036038101906103a19190612764565b610e84565b6040516103b391906134b9565b60405180910390f35b6103c4610fd6565b005b6103e060048036038101906103db9190612594565b61127e565b6040516103ed919061349e565b60405180910390f35b60007f80ac58cd000000000000000000000000000000000000000000000000000000007bffffffffffffffffffffffffffffffffffffffffffffffffffffffff1916827bffffffffffffffffffffffffffffffffffffffffffffffffffffffff191614806104c157507f5b5e139f000000000000000000000000000000000000000000000000000000007bffffffffffffffffffffffffffffffffffffffffffffffffffffffff1916827bffffffffffffffffffffffffffffffffffffffffffffffffffffffff1916145b806104d157506104d0826113ab565b5b9050919050565b6060600080546104e7906139d8565b80601f0160208091040260200160405190810160405280929190818152602001828054610513906139d8565b80156105605780601f1061053557610100808354040283529160200191610560565b820191906000526020600020905b81548152906001019060200180831161054357829003601f168201915b5050505050905090565b600061057582611415565b6105b4576040517f08c379a00000000000000000000000000000000000000000000000000000000081526004016105ab90613699565b60405180910390fd5b6004600083815260200190815260200160002060009054906101000a900473ffffffffffffffffffffffffffffffffffffffff169050919050565b60006105fa826109c3565b90508073ffffffffffffffffffffffffffffffffffffffff168373ffffffffffffffffffffffffffffffffffffffff16141561066b576040517f08c379a0000000000000000000000000000000000000000000000000000000008152600401610662906136f9565b60405180910390fd5b8073ffffffffffffffffffffffffffffffffffffffff1661068a611481565b73ffffffffffffffffffffffffffffffffffffffff1614806106b957506106b8816106b3611481565b61127e565b5b6106f8576040517f08c379a00000000000000000000000000000000000000000000000000000000081526004016106ef906135d9565b60405180910390fd5b6107028383611489565b505050565b610718610712611481565b82611542565b610757576040517f08c379a000000000000000000000000000000000000000000000000000000000815260040161074e90613719565b60405180910390fd5b610762838383611620565b505050565b6060600061079b6107778461187c565b60405160200161078791906133a8565b604051602081830303815290604052611a29565b9050600b80549050816107ae9190613a53565b9050600b81815481106107ea577f4e487b7100000000000000000000000000000000000000000000000000000000600052603260045260246000fd5b9060005260206000200180546107ff906139d8565b80601f016020809104026020016040519081016040528092919081815260200182805461082b906139d8565b80156108785780601f1061084d57610100808354040283529160200191610878565b820191906000526020600020905b81548152906001019060200180831161085b57829003601f168201915b5050505050915050919050565b6108a083838360405180602001604052806000815250610d04565b505050565b606060006108d96108b58461187c565b6040516020016108c591906133ec565b604051602081830303815290604052611a29565b9050600e80549050816108ec9190613a53565b9050600e8181548110610928577f4e487b7100000000000000000000000000000000000000000000000000000000600052603260045260246000fd5b90600052602060002001805461093d906139d8565b80601f0160208091040260200160405190810160405280929190818152602001828054610969906139d8565b80156109b65780601f1061098b576101008083540402835291602001916109b6565b820191906000526020600020905b81548152906001019060200180831161099957829003601f168201915b5050505050915050919050565b6000806002600084815260200190815260200160002060009054906101000a900473ffffffffffffffffffffffffffffffffffffffff169050600073ffffffffffffffffffffffffffffffffffffffff168173ffffffffffffffffffffffffffffffffffffffff161415610a6c576040517f08c379a0000000000000000000000000000000000000000000000000000000008152600401610a6390613619565b60405180910390fd5b80915050919050565b60008073ffffffffffffffffffffffffffffffffffffffff168273ffffffffffffffffffffffffffffffffffffffff161415610ae6576040517f08c379a0000000000000000000000000000000000000000000000000000000008152600401610add906135f9565b60405180910390fd5b600360008373ffffffffffffffffffffffffffffffffffffffff1673ffffffffffffffffffffffffffffffffffffffff168152602001908152602001600020549050919050565b606060018054610b3c906139d8565b80601f0160208091040260200160405190810160405280929190818152602001828054610b68906139d8565b8015610bb55780601f10610b8a57610100808354040283529160200191610bb5565b820191906000526020600020905b815481529060010190602001808311610b9857829003601f168201915b5050505050905090565b610bd1610bca611481565b8383611a5c565b5050565b6000610be16007611bc9565b905090565b60606000610c1a610bf68461187c565b604051602001610c069190613341565b604051602081830303815290604052611a29565b9050600c8054905081610c2d9190613a53565b9050600c8181548110610c69577f4e487b7100000000000000000000000000000000000000000000000000000000600052603260045260246000fd5b906000526020600020018054610c7e906139d8565b80601f0160208091040260200160405190810160405280929190818152602001828054610caa906139d8565b8015610cf75780601f10610ccc57610100808354040283529160200191610cf7565b820191906000526020600020905b815481529060010190602001808311610cda57829003601f168201915b5050505050915050919050565b610d15610d0f611481565b83611542565b610d54576040517f08c379a0000000000000000000000000000000000000000000000000000000008152600401610d4b90613719565b60405180910390fd5b610d6084848484611bd7565b50505050565b60606000610d9a610d768461187c565b604051602001610d86919061331f565b604051602081830303815290604052611a29565b9050600d8054905081610dad9190613a53565b9050600d8181548110610de9577f4e487b7100000000000000000000000000000000000000000000000000000000600052603260045260246000fd5b906000526020600020018054610dfe906139d8565b80601f0160208091040260200160405190810160405280929190818152602001828054610e2a906139d8565b8015610e775780601f10610e4c57610100808354040283529160200191610e77565b820191906000526020600020905b815481529060010190602001808311610e5a57829003601f168201915b5050505050915050919050565b6060610e8f82611415565b610ece576040517f08c379a0000000000000000000000000000000000000000000000000000000008152600401610ec590613679565b60405180910390fd5b6000600660008481526020019081526020016000208054610eee906139d8565b80601f0160208091040260200160405190810160405280929190818152602001828054610f1a906139d8565b8015610f675780601f10610f3c57610100808354040283529160200191610f67565b820191906000526020600020905b815481529060010190602001808311610f4a57829003601f168201915b505050505090506000610f78611c33565b9050600081511415610f8e578192505050610fd1565b600082511115610fc3578082604051602001610fab92919061325f565b60405160208183030381529060405292505050610fd1565b610fcc84611c4a565b925050505b919050565b6000610fe26007611bc9565b90508060085411611028576040517f08c379a000000000000000000000000000000000000000000000000000000000815260040161101f906135b9565b60405180910390fd5b600061103382610767565b9050600061104083610be6565b9050600061104d84610d66565b9050600083838360405160200161106693929190613283565b60405160208183030381529060405290506000611082866108a5565b90506000600982600a8560405160200161109f94939291906132b4565b604051602081830303815290604052905060006110e4846110bf84611cf1565b6040516020016110d0929190613363565b604051602081830303815290604052611cf1565b90506000816040516020016110f991906133ca565b604051602081830303815290604052905061112b604051806060016040528060248152602001613bd660249139611312565b6111538160405160200161113f91906132fd565b604051602081830303815290604052611312565b611174604051806060016040528060288152602001613bae60289139611312565b6111b26040518060400160405280601481526020017f0a2d2d2d2d2d2d2d2d2d2d2d2d2d2d2d2d2d2d2d000000000000000000000000815250611312565b6111bb83611312565b6111f96040518060400160405280601481526020017f0a2d2d2d2d2d2d2d2d2d2d2d2d2d2d2d2d2d2d2d000000000000000000000000815250611312565b611203338a611eaf565b61120d8982611ecd565b611230604051806060016040528060268152602001613bfa602691398a33611f41565b61123a6007611fe0565b7febb98688741ffa4c7589bf325de30cf7becb63de567842e1ccdb6cb949fdc82c338a60405161126b929190613475565b60405180910390a1505050505050505050565b6000600560008473ffffffffffffffffffffffffffffffffffffffff1673ffffffffffffffffffffffffffffffffffffffff16815260200190815260200160002060008373ffffffffffffffffffffffffffffffffffffffff1673ffffffffffffffffffffffffffffffffffffffff16815260200190815260200160002060009054906101000a900460ff16905092915050565b6113a88160405160240161132691906134b9565b6040516020818303038152906040527f41304fac000000000000000000000000000000000000000000000000000000007bffffffffffffffffffffffffffffffffffffffffffffffffffffffff19166020820180517bffffffffffffffffffffffffffffffffffffffffffffffffffffffff8381831617835250505050611ff6565b50565b60007f01ffc9a7000000000000000000000000000000000000000000000000000000007bffffffffffffffffffffffffffffffffffffffffffffffffffffffff1916827bffffffffffffffffffffffffffffffffffffffffffffffffffffffff1916149050919050565b60008073ffffffffffffffffffffffffffffffffffffffff166002600084815260200190815260200160002060009054906101000a900473ffffffffffffffffffffffffffffffffffffffff1673ffffffffffffffffffffffffffffffffffffffff1614159050919050565b600033905090565b816004600083815260200190815260200160002060006101000a81548173ffffffffffffffffffffffffffffffffffffffff021916908373ffffffffffffffffffffffffffffffffffffffff160217905550808273ffffffffffffffffffffffffffffffffffffffff166114fc836109c3565b73ffffffffffffffffffffffffffffffffffffffff167f8c5be1e5ebec7d5bd14f71427d1e84f3dd0314c0f7b2291e5b200ac8c7c3b92560405160405180910390a45050565b600061154d82611415565b61158c576040517f08c379a000000000000000000000000000000000000000000000000000000000815260040161158390613599565b60405180910390fd5b6000611597836109c3565b90508073ffffffffffffffffffffffffffffffffffffffff168473ffffffffffffffffffffffffffffffffffffffff16148061160657508373ffffffffffffffffffffffffffffffffffffffff166115ee8461056a565b73ffffffffffffffffffffffffffffffffffffffff16145b806116175750611616818561127e565b5b91505092915050565b8273ffffffffffffffffffffffffffffffffffffffff16611640826109c3565b73ffffffffffffffffffffffffffffffffffffffff1614611696576040517f08c379a000000000000000000000000000000000000000000000000000000000815260040161168d906136b9565b60405180910390fd5b600073ffffffffffffffffffffffffffffffffffffffff168273ffffffffffffffffffffffffffffffffffffffff161415611706576040517f08c379a00000000000000000000000000000000000000000000000000000000081526004016116fd90613559565b60405180910390fd5b61171183838361201f565b61171c600082611489565b6001600360008573ffffffffffffffffffffffffffffffffffffffff1673ffffffffffffffffffffffffffffffffffffffff168152602001908152602001600020600082825461176c91906138ee565b925050819055506001600360008473ffffffffffffffffffffffffffffffffffffffff1673ffffffffffffffffffffffffffffffffffffffff16815260200190815260200160002060008282546117c3919061380d565b92505081905550816002600083815260200190815260200160002060006101000a81548173ffffffffffffffffffffffffffffffffffffffff021916908373ffffffffffffffffffffffffffffffffffffffff160217905550808273ffffffffffffffffffffffffffffffffffffffff168473ffffffffffffffffffffffffffffffffffffffff167fddf252ad1be2c89b69c2b068fc378daa952ba7f163c4a11628f55a4df523b3ef60405160405180910390a4505050565b606060008214156118c4576040518060400160405280600181526020017f30000000000000000000000000000000000000000000000000000000000000008152509050611a24565b600082905060005b600082146118f65780806118df90613a0a565b915050600a826118ef9190613863565b91506118cc565b60008167ffffffffffffffff811115611938577f4e487b7100000000000000000000000000000000000000000000000000000000600052604160045260246000fd5b6040519080825280601f01601f19166020018201604052801561196a5781602001600182028036833780820191505090505b5090505b60008514611a1d5760018261198391906138ee565b9150600a856119929190613a53565b603061199e919061380d565b60f81b8183815181106119da577f4e487b7100000000000000000000000000000000000000000000000000000000600052603260045260246000fd5b60200101907effffffffffffffffffffffffffffffffffffffffffffffffffffffffffffff1916908160001a905350600a85611a169190613863565b945061196e565b8093505050505b919050565b600081604051602001611a3c9190613248565b6040516020818303038152906040528051906020012060001c9050919050565b8173ffffffffffffffffffffffffffffffffffffffff168373ffffffffffffffffffffffffffffffffffffffff161415611acb576040517f08c379a0000000000000000000000000000000000000000000000000000000008152600401611ac290613579565b60405180910390fd5b80600560008573ffffffffffffffffffffffffffffffffffffffff1673ffffffffffffffffffffffffffffffffffffffff16815260200190815260200160002060008473ffffffffffffffffffffffffffffffffffffffff1673ffffffffffffffffffffffffffffffffffffffff16815260200190815260200160002060006101000a81548160ff0219169083151502179055508173ffffffffffffffffffffffffffffffffffffffff168373ffffffffffffffffffffffffffffffffffffffff167f17307eab39ab6107e8899845ad3d59bd9653f200f220920489ca2b5937696c3183604051611bbc919061349e565b60405180910390a3505050565b600081600001549050919050565b611be2848484611620565b611bee84848484612024565b611c2d576040517f08c379a0000000000000000000000000000000000000000000000000000000008152600401611c2490613519565b60405180910390fd5b50505050565b606060405180602001604052806000815250905090565b6060611c5582611415565b611c94576040517f08c379a0000000000000000000000000000000000000000000000000000000008152600401611c8b906136d9565b60405180910390fd5b6000611c9e611c33565b90506000815111611cbe5760405180602001604052806000815250611ce9565b80611cc88461187c565b604051602001611cd992919061325f565b6040516020818303038152906040525b915050919050565b60606000825190506000811415611d1a5760405180602001604052806000815250915050611eaa565b60006003600283611d2b919061380d565b611d359190613863565b6004611d419190613894565b90506000602082611d52919061380d565b67ffffffffffffffff811115611d91577f4e487b7100000000000000000000000000000000000000000000000000000000600052604160045260246000fd5b6040519080825280601f01601f191660200182016040528015611dc35781602001600182028036833780820191505090505b5090506000604051806060016040528060408152602001613c20604091399050600181016020830160005b86811015611e675760038101905062ffffff818a015116603f8160121c168401518060081b905060ff603f83600c1c1686015116810190508060081b905060ff603f8360061c1686015116810190508060081b905060ff603f831686015116810190508060e01b90508084526004840193505050611dee565b506003860660018114611e815760028114611e9157611e9c565b613d3d60f01b6002830352611e9c565b603d60f81b60018303525b508484525050819450505050505b919050565b611ec98282604051806020016040528060008152506121bb565b5050565b611ed682611415565b611f15576040517f08c379a0000000000000000000000000000000000000000000000000000000008152600401611f0c90613639565b60405180910390fd5b80600660008481526020019081526020016000209080519060200190611f3c9291906123f7565b505050565b611fdb838383604051602401611f59939291906134db565b6040516020818303038152906040527fe3849f79000000000000000000000000000000000000000000000000000000007bffffffffffffffffffffffffffffffffffffffffffffffffffffffff19166020820180517bffffffffffffffffffffffffffffffffffffffffffffffffffffffff8381831617835250505050611ff6565b505050565b6001816000016000828254019250508190555050565b60008151905060006a636f6e736f6c652e6c6f679050602083016000808483855afa5050505050565b505050565b60006120458473ffffffffffffffffffffffffffffffffffffffff16612216565b156121ae578373ffffffffffffffffffffffffffffffffffffffff1663150b7a0261206e611481565b8786866040518563ffffffff1660e01b81526004016120909493929190613429565b602060405180830381600087803b1580156120aa57600080fd5b505af19250505080156120db57506040513d601f19601f820116820180604052508101906120d8919061273b565b60015b61215e573d806000811461210b576040519150601f19603f3d011682016040523d82523d6000602084013e612110565b606091505b50600081511415612156576040517f08c379a000000000000000000000000000000000000000000000000000000000815260040161214d90613519565b60405180910390fd5b805181602001fd5b63150b7a0260e01b7bffffffffffffffffffffffffffffffffffffffffffffffffffffffff1916817bffffffffffffffffffffffffffffffffffffffffffffffffffffffff1916149150506121b3565b600190505b949350505050565b6121c58383612229565b6121d26000848484612024565b612211576040517f08c379a000000000000000000000000000000000000000000000000000000000815260040161220890613519565b60405180910390fd5b505050565b600080823b905060008111915050919050565b600073ffffffffffffffffffffffffffffffffffffffff168273ffffffffffffffffffffffffffffffffffffffff161415612299576040517f08c379a000000000000000000000000000000000000000000000000000000000815260040161229090613659565b60405180910390fd5b6122a281611415565b156122e2576040517f08c379a00000000000000000000000000000000000000000000000000000000081526004016122d990613539565b60405180910390fd5b6122ee6000838361201f565b6001600360008473ffffffffffffffffffffffffffffffffffffffff1673ffffffffffffffffffffffffffffffffffffffff168152602001908152602001600020600082825461233e919061380d565b92505081905550816002600083815260200190815260200160002060006101000a81548173ffffffffffffffffffffffffffffffffffffffff021916908373ffffffffffffffffffffffffffffffffffffffff160217905550808273ffffffffffffffffffffffffffffffffffffffff16600073ffffffffffffffffffffffffffffffffffffffff167fddf252ad1be2c89b69c2b068fc378daa952ba7f163c4a11628f55a4df523b3ef60405160405180910390a45050565b828054612403906139d8565b90600052602060002090601f016020900481019282612425576000855561246c565b82601f1061243e57805160ff191683800117855561246c565b8280016001018555821561246c579182015b8281111561246b578251825591602001919060010190612450565b5b509050612479919061247d565b5090565b5b8082111561249657600081600090555060010161247e565b5090565b60006124ad6124a884613785565b613754565b9050828152602081018484840111156124c557600080fd5b6124d0848285613996565b509392505050565b6000813590506124e781613b51565b92915050565b6000813590506124fc81613b68565b92915050565b60008135905061251181613b7f565b92915050565b60008151905061252681613b7f565b92915050565b600082601f83011261253d57600080fd5b813561254d84826020860161249a565b91505092915050565b60008135905061256581613b96565b92915050565b60006020828403121561257d57600080fd5b600061258b848285016124d8565b91505092915050565b600080604083850312156125a757600080fd5b60006125b5858286016124d8565b92505060206125c6858286016124d8565b9150509250929050565b6000806000606084860312156125e557600080fd5b60006125f3868287016124d8565b9350506020612604868287016124d8565b925050604061261586828701612556565b9150509250925092565b6000806000806080858703121561263557600080fd5b6000612643878288016124d8565b9450506020612654878288016124d8565b935050604061266587828801612556565b925050606085013567ffffffffffffffff81111561268257600080fd5b61268e8782880161252c565b91505092959194509250565b600080604083850312156126ad57600080fd5b60006126bb858286016124d8565b92505060206126cc858286016124ed565b9150509250929050565b600080604083850312156126e957600080fd5b60006126f7858286016124d8565b925050602061270885828601612556565b9150509250929050565b60006020828403121561272457600080fd5b600061273284828501612502565b91505092915050565b60006020828403121561274d57600080fd5b600061275b84828501612517565b91505092915050565b60006020828403121561277657600080fd5b600061278484828501612556565b91505092915050565b61279681613922565b82525050565b6127a581613934565b82525050565b60006127b6826137ca565b6127c081856137e0565b93506127d08185602086016139a5565b6127d981613b40565b840191505092915050565b60006127ef826137d5565b6127f981856137f1565b93506128098185602086016139a5565b61281281613b40565b840191505092915050565b6000612828826137d5565b6128328185613802565b93506128428185602086016139a5565b80840191505092915050565b6000815461285b816139d8565b6128658186613802565b945060018216600081146128805760018114612891576128c4565b60ff198316865281860193506128c4565b61289a856137b5565b60005b838110156128bc5781548189015260018201915060208101905061289d565b838801955050505b50505092915050565b60006128da602583613802565b91507f68747470733a2f2f6e6674707265766965772e30786465762e636f6465732f3f60008301527f636f64653d0000000000000000000000000000000000000000000000000000006020830152602582019050919050565b60006129406032836137f1565b91507f4552433732313a207472616e7366657220746f206e6f6e20455243373231526560008301527f63656976657220696d706c656d656e74657200000000000000000000000000006020830152604082019050919050565b60006129a6601c836137f1565b91507f4552433732313a20746f6b656e20616c7265616479206d696e746564000000006000830152602082019050919050565b60006129e6600a83613802565b91507f54484952445f574f5244000000000000000000000000000000000000000000006000830152600a82019050919050565b6000612a26606983613802565b91507f222c20226465736372697074696f6e223a20224120686967686c79206163636c60008301527f61696d656420636f6c6c656374696f6e206f662073696c6c792073717561726560208301527f732e222c2022696d616765223a2022646174613a696d6167652f7376672b786d60408301527f6c3b6261736536342c00000000000000000000000000000000000000000000006060830152606982019050919050565b6000612ad86024836137f1565b91507f4552433732313a207472616e7366657220746f20746865207a65726f2061646460008301527f72657373000000000000000000000000000000000000000000000000000000006020830152604082019050919050565b6000612b3e6019836137f1565b91507f4552433732313a20617070726f766520746f2063616c6c6572000000000000006000830152602082019050919050565b6000612b7e600b83613802565b91507f5345434f4e445f574f52440000000000000000000000000000000000000000006000830152600b82019050919050565b6000612bbe602c836137f1565b91507f4552433732313a206f70657261746f7220717565727920666f72206e6f6e657860008301527f697374656e7420746f6b656e00000000000000000000000000000000000000006020830152604082019050919050565b6000612c24600d83613802565b91507f3c2f746578743e3c2f7376673e000000000000000000000000000000000000006000830152600d82019050919050565b6000612c646027836137f1565b91507f4e46547320534f4c44204f55543a204d696e74206c696d6974206f662035302060008301527f72656163686564000000000000000000000000000000000000000000000000006020830152604082019050919050565b6000612cca6038836137f1565b91507f4552433732313a20617070726f76652063616c6c6572206973206e6f74206f7760008301527f6e6572206e6f7220617070726f76656420666f7220616c6c00000000000000006020830152604082019050919050565b6000612d30602a836137f1565b91507f4552433732313a2062616c616e636520717565727920666f7220746865207a6560008301527f726f2061646472657373000000000000000000000000000000000000000000006020830152604082019050919050565b6000612d966029836137f1565b91507f4552433732313a206f776e657220717565727920666f72206e6f6e657869737460008301527f656e7420746f6b656e00000000000000000000000000000000000000000000006020830152604082019050919050565b6000612dfc602e836137f1565b91507f45524337323155524953746f726167653a2055524920736574206f66206e6f6e60008301527f6578697374656e7420746f6b656e0000000000000000000000000000000000006020830152604082019050919050565b6000612e62600283613802565b91507f227d0000000000000000000000000000000000000000000000000000000000006000830152600282019050919050565b6000612ea26020836137f1565b91507f4552433732313a206d696e7420746f20746865207a65726f20616464726573736000830152602082019050919050565b6000612ee26031836137f1565b91507f45524337323155524953746f726167653a2055524920717565727920666f722060008301527f6e6f6e6578697374656e7420746f6b656e0000000000000000000000000000006020830152604082019050919050565b6000612f48602c836137f1565b91507f4552433732313a20617070726f76656420717565727920666f72206e6f6e657860008301527f697374656e7420746f6b656e00000000000000000000000000000000000000006020830152604082019050919050565b6000612fae6029836137f1565b91507f4552433732313a207472616e73666572206f6620746f6b656e2074686174206960008301527f73206e6f74206f776e00000000000000000000000000000000000000000000006020830152604082019050919050565b6000613014602f836137f1565b91507f4552433732314d657461646174613a2055524920717565727920666f72206e6f60008301527f6e6578697374656e7420746f6b656e00000000000000000000000000000000006020830152604082019050919050565b600061307a600a83613802565b91507f7b226e616d65223a2022000000000000000000000000000000000000000000006000830152600a82019050919050565b60006130ba6021836137f1565b91507f4552433732313a20617070726f76616c20746f2063757272656e74206f776e6560008301527f72000000000000000000000000000000000000000000000000000000000000006020830152604082019050919050565b6000613120600a83613802565b91507f46495253545f574f5244000000000000000000000000000000000000000000006000830152600a82019050919050565b6000613160601d83613802565b91507f646174613a6170706c69636174696f6e2f6a736f6e3b6261736536342c0000006000830152601d82019050919050565b60006131a06031836137f1565b91507f4552433732313a207472616e736665722063616c6c6572206973206e6f74206f60008301527f776e6572206e6f7220617070726f7665640000000000000000000000000000006020830152604082019050919050565b6000613206600583613802565b91507f434f4c4f520000000000000000000000000000000000000000000000000000006000830152600582019050919050565b6132428161398c565b82525050565b6000613254828461281d565b915081905092915050565b600061326b828561281d565b9150613277828461281d565b91508190509392505050565b600061328f828661281d565b915061329b828561281d565b91506132a7828461281d565b9150819050949350505050565b60006132c0828761284e565b91506132cc828661281d565b91506132d8828561284e565b91506132e4828461281d565b91506132ef82612c17565b915081905095945050505050565b6000613308826128cd565b9150613314828461281d565b915081905092915050565b600061332a826129d9565b9150613336828461281d565b915081905092915050565b600061334c82612b71565b9150613358828461281d565b915081905092915050565b600061336e8261306d565b915061337a828561281d565b915061338582612a19565b9150613391828461281d565b915061339c82612e55565b91508190509392505050565b60006133b382613113565b91506133bf828461281d565b915081905092915050565b60006133d582613153565b91506133e1828461281d565b915081905092915050565b60006133f7826131f9565b9150613403828461281d565b915081905092915050565b6000602082019050613423600083018461278d565b92915050565b600060808201905061343e600083018761278d565b61344b602083018661278d565b6134586040830185613239565b818103606083015261346a81846127ab565b905095945050505050565b600060408201905061348a600083018561278d565b6134976020830184613239565b9392505050565b60006020820190506134b3600083018461279c565b92915050565b600060208201905081810360008301526134d381846127e4565b905092915050565b600060608201905081810360008301526134f581866127e4565b90506135046020830185613239565b613511604083018461278d565b949350505050565b6000602082019050818103600083015261353281612933565b9050919050565b6000602082019050818103600083015261355281612999565b9050919050565b6000602082019050818103600083015261357281612acb565b9050919050565b6000602082019050818103600083015261359281612b31565b9050919050565b600060208201905081810360008301526135b281612bb1565b9050919050565b600060208201905081810360008301526135d281612c57565b9050919050565b600060208201905081810360008301526135f281612cbd565b9050919050565b6000602082019050818103600083015261361281612d23565b9050919050565b6000602082019050818103600083015261363281612d89565b9050919050565b6000602082019050818103600083015261365281612def565b9050919050565b6000602082019050818103600083015261367281612e95565b9050919050565b6000602082019050818103600083015261369281612ed5565b9050919050565b600060208201905081810360008301526136b281612f3b565b9050919050565b600060208201905081810360008301526136d281612fa1565b9050919050565b600060208201905081810360008301526136f281613007565b9050919050565b60006020820190508181036000830152613712816130ad565b9050919050565b6000602082019050818103600083015261373281613193565b9050919050565b600060208201905061374e6000830184613239565b92915050565b6000604051905081810181811067ffffffffffffffff8211171561377b5761377a613b11565b5b8060405250919050565b600067ffffffffffffffff8211156137a05761379f613b11565b5b601f19601f8301169050602081019050919050565b60008190508160005260206000209050919050565b600081519050919050565b600081519050919050565b600082825260208201905092915050565b600082825260208201905092915050565b600081905092915050565b60006138188261398c565b91506138238361398c565b9250827fffffffffffffffffffffffffffffffffffffffffffffffffffffffffffffffff0382111561385857613857613a84565b5b828201905092915050565b600061386e8261398c565b91506138798361398c565b92508261388957613888613ab3565b5b828204905092915050565b600061389f8261398c565b91506138aa8361398c565b9250817fffffffffffffffffffffffffffffffffffffffffffffffffffffffffffffffff04831182151516156138e3576138e2613a84565b5b828202905092915050565b60006138f98261398c565b91506139048361398c565b92508282101561391757613916613a84565b5b828203905092915050565b600061392d8261396c565b9050919050565b60008115159050919050565b60007fffffffff0000000000000000000000000000000000000000000000000000000082169050919050565b600073ffffffffffffffffffffffffffffffffffffffff82169050919050565b6000819050919050565b82818337600083830152505050565b60005b838110156139c35780820151818401526020810190506139a8565b838111156139d2576000848401525b50505050565b600060028204905060018216806139f057607f821691505b60208210811415613a0457613a03613ae2565b5b50919050565b6000613a158261398c565b91507fffffffffffffffffffffffffffffffffffffffffffffffffffffffffffffffff821415613a4857613a47613a84565b5b600182019050919050565b6000613a5e8261398c565b9150613a698361398c565b925082613a7957613a78613ab3565b5b828206905092915050565b7f4e487b7100000000000000000000000000000000000000000000000000000000600052601160045260246000fd5b7f4e487b7100000000000000000000000000000000000000000000000000000000600052601260045260246000fd5b7f4e487b7100000000000000000000000000000000000000000000000000000000600052602260045260246000fd5b7f4e487b7100000000000000000000000000000000000000000000000000000000600052604160045260246000fd5b6000601f19601f8301169050919050565b613b5a81613922565b8114613b6557600080fd5b50565b613b7181613934565b8114613b7c57600080fd5b50565b613b8881613940565b8114613b9357600080fd5b50565b613b9f8161398c565b8114613baa57600080fd5b5056fe2d2d2d2d2d2d2d2d656e6420646562756720746f6b656e207572692d2d2d2d2d2d2d2d2d2d2d2d0a0a2d2d2d2d2d2d2d2d2d646562756720746f6b656e207572692d2d2d2d2d2d2d2d2d2d2d416e204e465420772f2049443a20257320686173206265656e206d696e74656420746f2025734142434445464748494a4b4c4d4e4f505152535455565758595a6162636465666768696a6b6c6d6e6f707172737475767778797a303132333435363738392b2fa2646970667358221220cc179ccf10d52057571e2ec9156a40875ab4b69ff94ea8f452d60d62ee6e935964736f6c634300080000333c73766720786d6c6e733d27687474703a2f2f7777772e77332e6f72672f323030302f73766727207072657365727665417370656374526174696f3d27784d696e594d696e206d656574272076696577426f783d273020302033353020333530273e3c7374796c653e2e62617365207b2066696c6c3a2077686974653b20666f6e742d66616d696c793a2073657269663b20666f6e742d73697a653a20323470783b207d3c2f7374796c653e3c726563742077696474683d273130302527206865696768743d2731303025272066696c6c3d27272f3e3c7465787420783d273530252720793d273530252720636c6173733d27626173652720646f6d696e616e742d626173656c696e653d276d6964646c652720746578742d616e63686f723d276d6964646c65273e",
	"linkReferences": {},
	"deployedLinkReferences": {}
}